:020000040800F2
:1000000000800020E1640008D55C0008D75C00088F
:10001000D95C0008DB5C0008DD5C00080000000023
:10002000000000000000000000000000E13F0008A8
:10003000DF5C00080000000081400008E540000887
:100040003165000831650008316500083165000838
:100050003165000831650008316500083165000828
:100060003165000831650008316500083165000818
:100070003165000831650008316500083165000808
:1000800031650008E15C0008316500083165000851
:1000900031650008316500083165000831650008E8
:1000A00031650008316500083165000831650008D8
:1000B00031650008316500083165000831650008C8
:1000C00031650008316500083165000831650008B8
:1000D00031650008F15C0008015D00083165000829
:1000E0003165000831650008316500083165000898
:1000F0003165000831650008316500083165000888
:100100000000000000000000000000003165000851
:100110003165000831650008115D00089D11000877
:10012000215D00083165000831650008316500086F
:100130003165000831650008000000000000000083
:1001400031650008316500083165000800000000D5
:10015000000000000000000000000000000000009F
:100160000000000000000000316500083165000853
:1001700031650008000000000000000000000000E1
:080180000000000031650008D9
:1001900010B5054C237833B9044B13B10448AFF3C1
:1001A00000800123237010BD8006002000000000A5
:1001B00018A0000808B5034B1BB103490348AFF36F
:1001C000008008BD000000008406002018A0000880
:1001D00001F0FF01102A2BDB10F0070F08D010F8F8
:1001E000013B013A8B422DD010F0070F42B3F6D1FC
:1001F000F0B441EA012141EA014122F007047FF015
:1002000000070023F0E80256083C85EA010586EA6B
:10021000010685FA47F5A3FA87F586FA47F6A5FAA7
:1002200087F68EB9EED1F0BC01F0FF0102F00702B3
:1002300032B110F8013B013A83EA010313B1F8D15E
:100240000020704701387047002D06BF354603383F
:10025000073815F0010F07D1013015F4807F02BF78
:10026000013015F4C03F0130F0BC0138704700BFC9
:10027000034613F8012B002AFBD1181A01387047E6
:1002800081F0004102E000BF83F0004330B54FEA47
:1002900041044FEA430594EA050F08BF90EA020FB4
:1002A0001FBF54EA000C55EA020C7FEA645C7FEA47
:1002B000655C00F0E2804FEA5454D4EB5555B8BF6A
:1002C0006D420CDD2C4480EA020281EA030382EADB
:1002D000000083EA010180EA020281EA0303362D6D
:1002E00088BF30BD11F0004F4FEA01314FF4801C40
:1002F0004CEA113102D0404261EB410113F0004F52
:100300004FEA03334CEA133302D0524263EB430308
:1003100094EA050F00F0A780A4F10104D5F1200EA6
:100320000DDB02FA0EFC22FA05F2801841F1000101
:1003300003FA0EF2801843FA05F359410EE0A5F1D5
:1003400020050EF1200E012A03FA0EFC28BF4CF006
:10035000020C43FA05F3C01851EBE37101F00045BC
:1003600007D54FF0000EDCF1000C7EEB00006EEBC9
:100370000101B1F5801F1BD3B1F5001F0CD3490853
:100380005FEA30004FEA3C0C04F101044FEA4452AA
:1003900012F5800F80F09A80BCF1004F08BF5FEA31
:1003A000500C50F1000041EB045141EA050130BD11
:1003B0005FEA4C0C404141EB010111F4801FA4F1B4
:1003C0000104E9D191F0000F04BF01460020B1FA09
:1003D00081F308BF2033A3F10B03B3F120020CDA41
:1003E0000C3208DD02F1140CC2F10C0201FA0CF01F
:1003F00021FA02F10CE002F11402D8BFC2F1200C84
:1004000001FA02F120FA0CFCDCBF41EA0C01904039
:10041000E41AA2BF01EB0451294330BD6FEA040482
:100420001F3C1CDA0C340EDC04F11404C4F120026D
:1004300020FA04F001FA02F340EA030021FA04F37F
:1004400045EA030130BDC4F10C04C4F1200220FAD6
:1004500002F001FA04F340EA0300294630BD21FA14
:1004600004F0294630BD94F0000F83F4801306BFDA
:1004700081F480110134013D4EE77FEA645C18BFCE
:100480007FEA655C29D094EA050F08BF90EA020F65
:1004900005D054EA000C04BF1946104630BD91EA5D
:1004A000030F1EBF0021002030BD5FEA545C05D160
:1004B0004000494128BF41F0004130BD14F580049F
:1004C0003CBF01F5801130BD01F0004545F0FE4113
:1004D00041F470014FF0000030BD7FEA645C1ABF48
:1004E000194610467FEA655C1CBF0B46024650EA7F
:1004F000013406BF52EA033591EA030F41F40021AB
:1005000030BD00BF90F0000F04BF0021704730B530
:100510004FF4806404F132044FF000054FF0000105
:1005200050E700BF90F0000F04BF0021704730B5C6
:100530004FF4806404F1320410F0004548BF40429B
:100540004FF000013EE700BF42004FEAE2014FEAF0
:1005500031014FEA02701FBF12F07F4393F07F4FCB
:1005600081F06051704792F0000F14BF93F07F4FFD
:10057000704730B54FF4607401F0004521F0004140
:1005800020E700BF50EA010208BF704730B54FF0C6
:1005900000050AE050EA010208BF704730B511F0CB
:1005A000004502D5404261EB41014FF4806404F103
:1005B00032045FEA915C3FF4DCAE4FF003025FEA85
:1005C000DC0C18BF03325FEADC0C18BF033202EB0D
:1005D000DC02C2F1200300FA03FC20FA02F001FA67
:1005E00003FE40EA0E0021FA02F11444C1E600BF06
:1005F00070B54FF0FF0C4CF4E06C1CEA11541DBFB9
:100600001CEA135594EA0C0F95EA0C0F00F0DEF883
:100610002C4481EA030621EA4C5123EA4C5350EA68
:10062000013518BF52EA033541F4801143F48013B9
:1006300038D0A0FB02CE4FF00005E1FB02E506F04A
:100640000042E0FB03E54FF00006E1FB03569CF09F
:10065000000F18BF4EF0010EA4F1FF04B6F5007FA5
:1006600064F5407404D25FEA4E0E6D4146EB060617
:1006700042EAC62141EA55514FEAC52040EA5E50A0
:100680004FEACE2EB4F1FD0C88BFBCF5E06F1ED84A
:10069000BEF1004F08BF5FEA500E50F1000041EB81
:1006A000045170BD06F0004646EA010140EA02002E
:1006B00081EA0301B4EB5C04C2BFD4EB0C0541EA50
:1006C000045170BD41F480114FF0000E013C00F365
:1006D000AB8014F1360FDEBF002001F0004170BD89
:1006E000C4F10004203C35DA0C341BDC04F11404A2
:1006F000C4F1200500FA05F320FA04F001FA05F22E
:1007000040EA020001F0004221F0004110EBD370FA
:1007100021FA04F642EB06015EEA430E08BF20EA26
:10072000D37070BDC4F10C04C4F1200500FA04F3C9
:1007300020FA05F001FA04F240EA020001F000415B
:1007400010EBD37041F100015EEA430E08BF20EACE
:10075000D37070BDC4F1200500FA05F24EEA020E16
:1007600020FA04F301FA05F243EA020321FA04F045
:1007700001F0004121FA04F220EA020000EBD370FC
:100780005EEA430E08BF20EAD37070BD94F0000FFC
:100790000FD101F00046400041EB010111F4801F30
:1007A00008BF013CF7D041EA060195F0000F18BFE1
:1007B000704703F00046520043EB030313F4801F1D
:1007C00008BF013DF7D043EA0603704794EA0C0FD7
:1007D0000CEA135518BF95EA0C0F0CD050EA4106ED
:1007E00018BF52EA4306D1D181EA030101F000416A
:1007F0004FF0000070BD50EA410606BF1046194692
:1008000052EA430619D094EA0C0F02D150EA01369D
:1008100013D195EA0C0F05D152EA03361CBF1046DE
:1008200019460AD181EA030101F0004141F0FE417D
:1008300041F470014FF0000070BD41F0FE4141F401
:10084000780170BD70B54FF0FF0C4CF4E06C1CEA01
:1008500011541DBF1CEA135594EA0C0F95EA0C0FB6
:1008600000F0A7F8A4EB050481EA030E52EA033571
:100870004FEA013100F088804FEA03334FF0805592
:1008800045EA131343EA12634FEA022245EA1115BF
:1008900045EA10654FEA00260EF000419D4208BF70
:1008A000964244F1FD0404F5407402D25B084FEA1D
:1008B0003202B61A65EB03055B084FEA32024FF4C9
:1008C00080104FF4002CB6EB020E75EB030E22BF26
:1008D000B61A754640EA0C005B084FEA3202B6EBE6
:1008E000020E75EB030E22BFB61A754640EA5C0095
:1008F0005B084FEA3202B6EB020E75EB030E22BF25
:10090000B61A754640EA9C005B084FEA3202B6EB25
:10091000020E75EB030E22BFB61A754640EADC00E4
:1009200055EA060E18D04FEA051545EA16754FEA46
:1009300006164FEAC30343EA52734FEAC2025FEA64
:100940001C1CC0D111F4801F0BD141EA00014FF0F3
:1009500000004FF0004CB6E711F4801F04BF0143C4
:100960000020B4F1FD0C88BFBCF5E06F3FF6AFAEE0
:10097000B5EB030C04BFB6EB020C5FEA500C50F170
:10098000000041EB045170BD0EF0004E4EEA1131F3
:1009900014EB5C04C2BFD4EB0C0541EA045170BDFA
:1009A00041F480114FF0000E013C90E645EA060E3E
:1009B0008DE60CEA135594EA0C0F08BF95EA0C0F6C
:1009C0003FF43BAF94EA0C0F0AD150EA01347FF4B4
:1009D00034AF95EA0C0F7FF425AF104619462CE78B
:1009E00095EA0C0F06D152EA03353FF4FDAE1046EE
:1009F000194622E750EA410618BF52EA43067FF43F
:100A0000C5AE50EA41047FF40DAF52EA43057FF4CE
:100A1000EBAE12E74FF0FF3C06E000BF4FF0010CD9
:100A200002E000BF4FF0010C4DF804CD4FEA410C3D
:100A30007FEA6C5C4FEA430C18BF7FEA6C5C1BD00A
:100A400001B050EA410C0CBF52EA430C91EA030F8B
:100A500002BF90EA020F0020704710F1000F91EAE8
:100A6000030F58BF994208BF90422CBFD8176FEAB6
:100A7000E37040F0010070474FEA410C7FEA6C5C84
:100A800002D150EA013C07D14FEA430C7FEA6C5C8B
:100A9000D6D152EA033CD3D05DF8040B704700BFB7
:100AA0008446104662468C461946634600E000BF05
:100AB00001B5FFF7B7FF002848BF10F1000F01BDD7
:100AC0004DF808EDFFF7F4FF0CBF012000205DF8A2
:100AD00008FB00BF4DF808EDFFF7EAFF34BF012027
:100AE00000205DF808FB00BF4DF808EDFFF7E0FFC0
:100AF00094BF012000205DF808FB00BF4DF808ED11
:100B0000FFF7CEFF94BF012000205DF808FB00BF77
:100B10004DF808EDFFF7C4FF34BF012000205DF859
:100B200008FB00BF4FEA410C7FEA6C5C02D150EA3F
:100B3000013C0AD14FEA430C7FEA6C5C02D152EAD5
:100B4000033C02D14FF0000070474FF001007047A6
:100B50004FEA410212F5001215D211D56FF47873E5
:100B6000B3EB625212D94FEAC12343F0004343EA88
:100B7000505311F0004F23FA02F018BF4042704763
:100B80004FF00000704750EA013005D111F00040ED
:100B900008BF6FF0004070474FF00000704700BF83
:100BA0004FEA4102B2F1E04324BFB3F5001CDCF18F
:100BB000FE5C0DD901F0004C4FEAC0024CEA5070C7
:100BC000B2F1004F40EB830008BF20F001007047F6
:100BD00011F0804F21D113F13872BCBF01F00040F9
:100BE000704741F480114FEA5252C2F11802C2F12B
:100BF000200C10FA0CF320FA02F018BF40F00100AC
:100C00004FEAC1234FEAD32303FA0CFC40EA0C005D
:100C100023FA02F34FEA4303CCE77FEA625307D19A
:100C200050EA01331EBF4FF0FE4040F440007047D1
:100C300001F0004040F0FE4040F40000704700BF6B
:100C400053B94AB9002908BF00281CBF4FF0FF3133
:100C50004FF0FF3000F07AB9ADF1080C6DE904CE29
:100C600000F006F8DDF804E0DDE9022304B0704787
:100C70002DE9F0478C460D460446089E002B51D1C5
:100C80008A4217466DD9B2FA82FEBEF1000F0BD030
:100C9000CEF1200C01FA0EF520FA0CFC02FA0EF748
:100CA0004CEA050C00FA0EF44FEA174A250CBCFB7F
:100CB000FAF81FFA87F90AFB18CC45EA0C4508FB3D
:100CC00009F3AB420AD9ED1908F1FF3280F0238114
:100CD000AB4240F22081A8F102083D44ED1AA4B2D3
:100CE000B5FBFAF00AFB105544EA054400FB09F98C
:100CF000A14509D9E41900F1FF3380F00A81A1452B
:100D000040F2078102383C44A4EB090440EA084061
:100D10000021002E61D024FA0EF4002334607360A9
:100D2000BDE8F0878B4207D9002E54D0002186E819
:100D300021000846BDE8F087B3FA83F1002940F0AE
:100D40008E80AB4202D3824200F2FA80841A65EBB5
:100D500003050120AC46002E3FD086E81010BDE808
:100D6000F08712B90127B7FBF2F7B7FA87FEBEF199
:100D7000000F34D1EB1B3A0C1FFA87FC0121B3FBA7
:100D8000F2F8250C02FB183345EA03450CFB08F387
:100D9000AB4207D9ED1908F1FF3002D2AB4200F2A5
:100DA000D1808046ED1AA3B2B5FBF2F002FB1055DC
:100DB00043EA05440CFB00FCA44507D9E41900F103
:100DC000FF3302D2A44500F2B8801846A4EB0C040D
:100DD00040EA08409DE731463046BDE8F087CEF155
:100DE000200405FA0EF307FA0EF720FA04F83A0C7D
:100DF00025FA04F448EA0308B4FBF2F14FEA184577
:100E000002FB11441FFA87FC45EA044501FB0CF381
:100E1000AB4200FA0EF409D9ED1901F1FF3080F070
:100E20008A80AB4240F2878002393D44EB1A1FFAB8
:100E300088F5B3FBF2F002FB103345EA034500FBF3
:100E40000CF3AB4207D9ED1900F1FF386FD2AB427A
:100E50006DD902383D44EB1A40EA01418FE7C1F1F8
:100E6000200722FA07F88B4005FA01F448EA030349
:100E700020FA07FE4FEA134CFD404EEA040EB5FB84
:100E8000FCF94FEA1E440CFB19551FFA83F844EA9B
:100E9000054509FB08F4AC4202FA01F200FA01FA36
:100EA00008D9ED1809F1FF3043D2AC4241D9A9F17C
:100EB00002091D442D1B1FFA8EFEB5FBFCF00CFB36
:100EC00010554EEA054400FB08F8A04507D9E41880
:100ED00000F1FF3529D2A04527D902381C4440EA49
:100EE0000940A4EB0804A0FB02894C45C6464D46C8
:100EF00015D312D056B1BAEB0E0364EB050404FA15
:100F000007F7CB401F43CC40376074600021BDE839
:100F1000F0871846F8E69046E0E6C245EAD2B8EB1C
:100F2000020E69EB03050138E4E72846D7E740469F
:100F300091E78146BEE7014678E702383C4445E741
:100F4000084608E7A8F102083D442BE7704700BFB8
:100F50002DE9F04182B0002601963546A846344678
:100F6000642201A9224B986803F07EFC0128F7D186
:100F7000019FBEB21F4B1E603D0C1F4B1D60301BFE
:100F800007EE900AF8EEE77A17EE900AFFF7DCFA20
:100F900015A3D3E90023FFF72BFBFFF701FE174B47
:100FA0001860134C6061A5EB080007EE900AF8EE9C
:100FB000E77A17EE900AFFF7C7FA0BA3D3E90023ED
:100FC000FFF716FBFFF7ECFDA0612784658494F81A
:100FD000243013F0010FC1D1B4F91E10B4F91C0074
:100FE00000F064F9BAE700BF5B2238AAAAAA0A4057
:100FF000B04F0020DC4F0020D84F0020E04F0020F1
:1010000010B582B01B4C204601F0E6FE3C21204684
:1010100002F06AFA184C204601F0DEFE3C21204620
:1010200002F062FA002204210A2003F0C1FA134CF4
:10103000A060002201210A2003F0BAFA60600024B7
:1010400001940523009323464FF4FA720C490D488E
:1010500003F0B5FE0194022300932346FA220A49C5
:101060000A4803F0ACFE0A4801F0CEFE00F07CF91D
:1010700002B010BDE451002064510020B04F0020A8
:101080004CA00008510F000858A000085D1100088E
:10109000A452002000B583B08DF80700012804D0C9
:1010A000032811D003B05DF804FB072AFADD0A68B3
:1010B0004B681C48C260036100231A460DF107010A
:1010C000406803F09DFAEDE7012AEBDD91F900207D
:1010D00091F90130642A05DC12F1640F03DA6FF034
:1010E000630200E06422642B05DC13F1640F03DA71
:1010F0006FF0630300E064230A4890F824106FF354
:10110000000180F8241002EB8202828303EB830348
:10111000C38300231A460DF10701406803F070FAFB
:10112000C0E700BFB04F002000B585B00A4B5A6938
:1011300001929A690292B3F92020ADF80C20B3F91C
:101140002230ADF80E300C2201A9022000F02EF959
:1011500005B05DF804FB00BFB04F002000B583B0C0
:1011600009E00D4B0022DA601A610021084600F008
:101170007FF8FFF7D9FF4FF4FA720DF10701064B24
:10118000586803F071FB0028EBD0FFF7CDFF012179
:10119000084600F06DF8ECE7B04F002000B583B0D2
:1011A000002301930F4A12686FF0010111610E4A8A
:1011B000526A0E49496A42EA0142009201AA69460E
:1011C0000B48806803F0E0FA019B3BB14FF080527E
:1011D000084B1A60BFF34F8FBFF36F8F03B05DF8FA
:1011E00004FB00BFA4520020002C01400008004076
:1011F000B04F002004ED00E070B54FF0904253690D
:1012000023F48063536102F50062536923F0020303
:101210005361134C204601F0DFFD124E304601F0C1
:10122000DBFD114D284601F0D7FD0021204602F0DC
:101230001DF90421204602F019F90021304602F080
:1012400015F90021284602F011F90023074A5363DB
:1012500002F5806253634FF080425363936370BD25
:101260002452002064520020A45100200044014078
:1012700061B10D4A536943F00203536160B94FF005
:101280009042536923F4806353617047064A53695F
:1012900023F002035361F1E74FF09042536943F4A6
:1012A00080635361704700BF0008004800280DDBD1
:1012B0000E4B5863002203F580635A6300290DDB4F
:1012C0004FF08043596300229A6370474042084BB5
:1012D00058630022A3F580635A63EFE749424FF059
:1012E0008043996300225A63704700BF0044014065
:1012F0000048014000B583B0002301930268928C3E
:101300008DF8032001AA0DF103011548006803F0D0
:101310003BFA9DF803204FF06043D3F8803E13F072
:10132000010F06D04FF06043D3F8003E13F0010FD9
:101330000DD1019B3BB14FF080520A4B1A60BFF3B5
:101340004F8FBFF36F8F03B05DF804FB00BF4FF00A
:1013500060431B68002BF9D04FF060431A70E8E738
:10136000E44F002004ED00E000B583B0002201212D
:101370000A2003F01DF9084B1860084A084B1A664A
:101380000023019302220092FA220649064803F044
:1013900016FD03B05DF804FBE44F0020F5120008D1
:1013A0002853002064A00008F91300081A2A00DD61
:1013B000704738B515460E4C122384F84430342358
:1013C00084F84530531C84F8463084F8470004F113
:1013D000480005F0D9F82B1D2344AA2283F84420A5
:1013E0006A1D92B204F14401024802F087F938BD47
:1013F000E44F002028530020F0B583B0234A13683F
:1014000043F020031360002400E0002432220DF199
:1014100007011F4B186803F027FA0128F5D1032CA8
:10142000F4D8DFE804F0020810159DF80730122BFD
:10143000ECD10124EAE79DF80730342B01D00024D9
:10144000E4E70224E2E79DF8076000250324DDE7D6
:10145000AE4207D96A1C0E4B1D449DF807302B7114
:10146000D5B2D3E79DF80730AA2B01D00024CDE7F1
:10147000074C771E3A462179064805F099F83A4616
:10148000611D2079FFF706FE0024BFE70038014008
:10149000E44F00206CA0000808B5074A136843F029
:1014A00010031360032000F091FB002004F0D4FB34
:1014B00004F0B2FB002008BD00200240034A11687E
:1014C000034B1B780B441360704700BF485000204B
:1014D00000000020014B1868704700BF48500020F2
:1014E00038B50268936803F00303012B11D0002381
:1014F000002B37D0936803F00D03012B11D0036C40
:1015000043F010030364436C43F001034364012080
:1015100038BD136813F0010F01D10023E8E7012360
:10152000E6E70446936843F00203936003680322EE
:101530001A60FFF7CFFF054623689B6813F0010F81
:101540000ED0FFF7C7FF401B0228F5D9236C43F0EC
:1015500010032364636C43F001036364012038BD0E
:10156000002038BD002038BD70B596B0002301932F
:10157000002800F035810446036C13F0100F51D1A0
:10158000036CABB1002023689A6812F0805F03D02F
:101590009B6813F0005F46D0236C23F0120343F0E6
:1015A00010032364636C43F00103636401203AE099
:1015B0004364C364836480F83C3004F099F9236881
:1015C0009B6813F0805F01D00020DCE72046FFF726
:1015D00087FF236C13F0100FD5D10028D3D1236CD3
:1015E00023F4885323F0020343F0020323642268A8
:1015F000936823F0405393602268936843F08053CC
:101600009360784B1B68784AA2FB03239B0C03EB87
:1016100083035A000192019B002BB4D0019B013B34
:101620000193F8E70020236C13F0100F40F0CF80F7
:10163000002840F0CC802368996811F0040140F044
:10164000C680226C22F4817242F002022264B3F15D
:10165000A04F70D0654A93426BD0654DB3F1A04F57
:101660006BD0624A93426CD0624A93426DD0624A18
:1016700093426DD0002302932268936803F0030322
:10168000012B68D000236BB9029E2EB1B26802F024
:101690000302012A67D02BB9AB6823F44033626898
:1016A0001343AB60627E5303656B012D01D04FF491
:1016B00080510B43E1680B43A1680B4394F8201061
:1016C000012956D0A26A012A0AD02168494DA942AF
:1016D00062D005F58075A9425ED0E16A0A431343E2
:1016E0002268916811F00C0F0CD1D16821F480416F
:1016F00021F00201D160217E94F83020520042EAAC
:10170000813213432168CD683C4A2A401343CB60A1
:101710002369012B52D02268136B23F00F0313634C
:1017200000236364236C23F0030343F00103236469
:1017300054E0334D92E7324D90E703F58073029306
:101740009AE74FF0A043029396E72B4B029393E75F
:10175000284B029390E7136813F0010F01D1002387
:1017600091E701238FE7326812F0010F93D0012334
:1017700091E732B9626A013A43EA424343F4803363
:10178000A0E7226C22F0220242F020022264626C66
:1017900042F00102626495E7B2F5307F08D0B2F5FD
:1017A000807F08D0B2F5E07F97D14FF4807294E744
:1017B0004FF4E07291E74FF430728EE721680B6BC3
:1017C00023F00F03E269013A13430B63A8E7236C8C
:1017D00023F0120343F010032364012016B070BD00
:1017E0000120FBE70C00002083DE1B4300010050BA
:1017F00000070050000400500005005007C0F0FF33
:101800000003005070B497B00022019290F83C2081
:10181000012A00F0C9810346012280F83C200068BB
:10182000826812F0040F40F0B2814A68042A31D86D
:10183000046B02EB420255001F22AA4024EA020276
:101840000C68AC40224302631868826812F00C0FE7
:1018500068D10A68092A4ED9846902EB42021E3A0D
:101860000725954024EA05048D6805FA02F2224313
:10187000826148691C68E268C2F3C102520000FA42
:1018800002F208690138032800F29980DFE800F0CD
:101890004076818C092A0ED8446B02EB4202550037
:1018A0001E3D1F22AA4024EA02020C6804FA05F534
:1018B0002A434263C8E70E2A0ED8846B02EB420229
:1018C00055003C3D1F22AA4024EA02020C6804FA9B
:1018D00005F52A438263B7E7C46B02EB4202550069
:1018E0005A3D1F22AA4024EA02020C6804FA05F5B8
:1018F0002A43C263A8E7446902EB420207259540E8
:1019000024EA05048D6805FA02F222434261B0E739
:10191000206EA64D0540086842EA8062154345F0F6
:10192000004525661868826802F00302012A79D012
:101930000022002A40F03681CC68012C7AD0D0F801
:10194000B0400E680125B54024EA0504C0F8B04057
:101950001868B0F1A04F00F09880954CA04200F0BC
:101960009280944D0C68102C00F09180112C00F0A6
:10197000BB80122C00F0BD8000200DE1606E8B4D0D
:101980000540086842EA8062154345F000456566F7
:10199000C8E7A06E854D0540086842EA806215439D
:1019A00045F00045A566BDE7E56E804828400D6816
:1019B00042EA8562024342F00042E266B2E7226EEA
:1019C00002F0F8420868B2EB806F1CD01868426ED3
:1019D00002F0F8420C68B2EB846F19D01868826E7E
:1019E00002F0F8420C68B2EB846F16D01868C26E31
:1019F00002F0F8420C68B2EB846F93D1C26E22F011
:101A00000042C2668EE7226E22F000422266DDE7C7
:101A1000426E22F000424266E0E7826E22F000420F
:101A20008266E3E7026812F0010F01D1002280E72D
:101A300001227EE7D0F8B0400E680125B5402C4366
:101A4000C0F8B040086809280ED91E68B46900EBD8
:101A500040001B380725854024EA05048D6805FAF7
:101A600000F02043B06173E71E687469013000EB39
:101A700040000725854024EA05048D6805FA00F03A
:101A80002043706164E74C4D6CE74B4D6AE7AE68EC
:101A900016F4000F7FF46AAFB0F1A04F2FD0444C82
:101AA000A04230D0454CA04231D0454CA04231D06C
:101AB000002002901C68A06800F0030001282CD0D0
:101AC000002A5ED1029E36B1B06800F00300012802
:101AD00029D0002A55D10A68102A2AD0112A41D0CB
:101AE000122A48D0002057E0AE6816F0807FD3D08D
:101AF0003FE7AC6814F4800FCED000204CE000F536
:101B000080700290D6E74FF0A0400290D2E72C48B8
:101B10000290CFE729480290CCE7206810F0010F2F
:101B2000CED00122CCE7306810F0010FD1D00122D5
:101B3000CFE7B4F1A04FD1D1AA6842F40002AA6065
:101B4000204A12682049B2FBF1F10A2202FB01F29D
:101B5000019202E0019A013A0192019A002AF9D118
:101B6000002019E0B4F1A04FBAD1AA6842F0807207
:101B7000AA60002010E0AA6842F48002AA60002057
:101B80000AE01A6C42F020021A64012004E01A6C88
:101B900042F020021A640120002283F83C2017B092
:101BA00070BC70470020F7E70220F8E700F0FF83E1
:101BB00000010050000700500003005000040050D6
:101BC000000500500C00002040420F00074AD36877
:101BD00023F4E0631B041B0C000200F4E0601843D4
:101BE00040F0BF6040F40030D060704700ED00E08E
:101BF00030B4164BDB68C3F30223C3F10704042C93
:101C000028BF04241D1D062D17D9033B012505FA05
:101C100004F4013C2140994005FA03F3013B1340D1
:101C2000194300280BDB0901C9B200F1604000F53F
:101C3000614080F8001330BC70470023E6E700F0F5
:101C40000F000901C9B2024B1954F4E700ED00E09E
:101C500014ED00E0002808DB420900F01F0001231A
:101C600003FA00F0014B43F82200704700E100E066
:101C700002680C4B9A420AD90B4B13440B4AA2FB45
:101C800003231B099B000364094BC3637047094B83
:101C90001344064AA2FB03231B099B000364064B63
:101CA000C363704707040240F8FBFDBFCDCCCCCC2A
:101CB00000040240F8FFFDBF0000024020B310B551
:101CC0000446022380F8213001680A6822F47F521A
:101CD00022F03002436880680343E06803432069D0
:101CE000034360690343A0690343E069034313436B
:101CF0000B602046FFF7BCFF0020A063012384F89F
:101D0000213084F8200010BD0120704708B590F8FC
:101D10002130022B03D004238363012008BD026815
:101D2000136823F00E0313600268136823F00103A5
:101D30001360C16B036C012202FA03F34B6080F85D
:101D40002120002380F82030436B13B198470020F6
:101D500008BD002008BD38B5C36B1A680468256843
:101D6000016C04238B401A4214D015F0040F11D0DB
:101D7000236813F0200F03D1236823F004032360AA
:101D8000C26B016C04238B405360C36A002B3AD0B2
:101D9000984738BD02238B401A4219D015F0020F24
:101DA00016D0236813F0200F06D1236823F00A030E
:101DB0002360012380F82130C26B016C02238B4029
:101DC0005360002380F82030836AE3B1984738BD20
:101DD000082303FA01F10A4215D015F0080F12D0BA
:101DE000236823F00E032360C16B026C012303FA06
:101DF00002F24A60836380F82130002380F82030AB
:101E0000036B03B1984738BDF0B583B000238CE075
:101E1000DE08083650F8264003F0070E4FEA8E0E13
:101E20000F2707FA0EF724EA07040F6907FA0EF7DF
:101E30003C4340F8264087E086682640CF6807FA92
:101E40000EF73E438660466826EA05054E68C6F3EF
:101E500000169E4035434560C5682C408D6805FAE4
:101E60000EF52C43C4604C6814F0805F5CD04A4C83
:101E7000A56945F00105A561A46904F00104019478
:101E8000019C9D08AE1C454C54F8264003F0030607
:101E9000B6000F27B74024EA0704B0F1904F70D086
:101EA0003F4FB8426FD007F58067B8426DD007F555
:101EB0008067B8426BD007F58067B8425FD00527CE
:101EC00007FA06F634430235344E46F82540354CC1
:101ED0002568D44305EA04064F6817F4803F01D013
:101EE00042EA05062F4D2E606D6804EA05064F682C
:101EF00017F4003F01D042EA05062A4D6E60AD6836
:101F000004EA05064F6817F4801F01D042EA05066F
:101F1000244DAE60ED682C404E6816F4001F01D0D1
:101F200042EA05041F4AD46001330A6832FA03F416
:101F30002FD001259D402A40F6D04C68022C3FF45A
:101F400067AF122C3FF464AF06684FEA430E0324D8
:101F500004FA0EF4E44326404F6807F0030707FA3B
:101F60000EF73E4306604E68771E012F7FF664AF82
:101F7000112E3FF461AF122E7FF46EAF5CE70427A1
:101F80009EE700279CE701279AE7022798E70327A7
:101F900096E703B0F0BD00BF001002400000014012
:101FA00000040048000401400AB981627047816161
:101FB00070470000002800F00B8370B582B0044623
:101FC000036813F0010F63D0B44B5B6803F00C039C
:101FD000042B46D0B14B5B6803F00C03082B3BD0BD
:101FE0006368B3F5803F00F08E80002B40F0918055
:101FF00003F1804303F504331A6822F480321A6037
:102000001A6822F480221A60A44AD36A23F00F03CC
:10201000A1680B43D3626368002B00F09480FFF744
:1020200059FA05464FF4003393FAA3F39B4B196812
:102030004FF4003393FAA3F3B3FA83F303F01F03CF
:10204000012202FA03F3194222D1FFF743FA401B9F
:102050006428E7D90320C4E2904B5B6813F4803F07
:10206000BED04FF4003393FAA3F38C4B19684FF4AE
:10207000003393FAA3F3B3FA83F303F01F030122AF
:1020800002FA03F3194203D06368002B00F0A28226
:10209000236813F0020F00F09C80804B5B6813F004
:1020A0000C0F72D07D4B5B6803F00C03082B67D0DC
:1020B0002369002B00F0CB80012292FAA2F3B3FA3D
:1020C00083F303F1845303F584139B001A60FFF735
:1020D00001FA0546022393FAA3F3704B1968022311
:1020E00093FAA3F3B3FA83F303F01F03012202FA76
:1020F00003F3194240F09C80FFF7ECF9401B0228E3
:10210000E8D903206DE2654A136843F48033136015
:102110007AE7B3F5A02F09D0604B1A6822F4803219
:102120001A601A6822F480221A606DE703F1804376
:10213000A3F53C331A6842F480221A601A6842F40C
:1021400080321A6060E7FFF7C5F905464FF40033A7
:1021500093FAA3F3514B19684FF4003393FAA3F3A6
:10216000B3FA83F303F01F03012202FA03F31942C7
:102170008ED0FFF7AFF9401B6428E7D9032030E287
:10218000464B5B6813F4803F92D1022393FAA3F38A
:10219000424B1968022393FAA3F3B3FA83F303F0D3
:1021A0001F03012202FA03F3194204D02369934268
:1021B00001D0012015E23948036823F0F803616972
:1021C000F82292FAA2F2B2FA82F201FA02F2134370
:1021D0000360236813F0080F00F08C80A369002BC4
:1021E00060D0012191FAA1F2B2FA82F22C4B134491
:1021F0009B001960FFF76EF90546022393FAA3F2DC
:1022000093FAA3F293FAA3F2244A516A93FAA3F33E
:10221000B3FA83F303F01F03012202FA03F3194216
:1022200068D1FFF757F9401B0228E6D90320D8E10F
:102230001A48036823F0F8036169F82292FAA2F2BF
:10224000B2FA82F201FA02F213430360C1E70123FA
:1022500093FAA3F3B3FA83F303F1845303F58413DE
:102260009B0000221A60FFF735F90546022393FA16
:10227000A3F30A4B1968022393FAA3F3B3FA83F387
:1022800003F01F03012202FA03F31942A1D0FFF762
:1022900021F9401B0228E9D90320A2E100100240E5
:1022A00020819010012292FAA2F2B2FA82F2BC4B83
:1022B00013449B0000221A60FFF70CF90546022325
:1022C00093FAA3F293FAA3F293FAA3F2B54A516AEE
:1022D00093FAA3F3B3FA83F303F01F03012202FA84
:1022E00003F3194206D0FFF7F5F8401B0228E6D9A0
:1022F000032076E1236813F0040F00F0B380A94BAC
:10230000DB6913F0805F26D1A64BDA6942F0805278
:10231000DA61DB6903F080530193019B0125A24B35
:102320001B6813F4807F18D0E368012B29D073BB9E
:1023300003F1804303F504331A6A22F001021A62A2
:102340001A6A22F004021A62E368002B5DD0FFF7DC
:10235000C1F8064647E00025E1E7934A136843F4D5
:1023600080731360FFF7B6F806468F4B1B6813F4B3
:10237000807FD9D1FFF7AEF8801B6428F5D9032000
:102380002FE1884A136A43F001031362DCE7052B4F
:1023900009D0844B1A6A22F001021A621A6A22F0EA
:1023A00004021A62D0E77F4B1A6A42F004021A62F2
:1023B0001A6A42F001021A62C6E77A4B196A0223CE
:1023C00093FAA3F3B3FA83F303F01F03012202FA93
:1023D00003F3194245D1FFF77DF8801B41F28833A2
:1023E000984200F2F980022393FAA3F293FAA3F33E
:1023F000B3FA83F35B0943F00203022BDDD002231F
:1024000093FAA3F3674B596AD9E7FFF763F80646D7
:1024100015E0644B196A022393FAA3F3B3FA83F32A
:1024200003F01F03012202FA03F3194219D0FFF748
:1024300051F8801B41F28833984200F2CF8002238A
:1024400093FAA3F293FAA3F3B3FA83F35B0943F08D
:102450000203022BDDD0022393FAA3F3514B596AF6
:10246000D9E7B5BBE369002B00F0BA804D4A52684A
:1024700002F00C02082A00F09980022B2FD04FF0B6
:10248000807393FAA3F3B3FA83F303F1845303F550
:1024900084139B0000221A60FFF71CF804464FF0DB
:1024A000007393FAA3F33F4B19684FF0007393FA4C
:1024B000A3F3B3FA83F303F01F03012202FA03F339
:1024C00019426BD0FFF706F8001B0228E7D903205A
:1024D00087E0344AD36923F08053D361C2E74FF0D9
:1024E000807393FAA3F3B3FA83F303F1845303F5F0
:1024F00084139B0000221A60FEF7ECFF05464FF0A4
:10250000007393FAA3F3274B19684FF0007393FA03
:10251000A3F3B3FA83F303F01F03012202FA03F3D8
:10252000194206D0FEF7D6FF401B0228E7D9032048
:1025300057E01C494B6823F47413626A206A024313
:1025400013434B604FF0807393FAA3F3B3FA83F312
:1025500003F1845303F584139B0001221A60FEF7F4
:10256000B9FF04464FF0007393FAA3F30D4B1968BB
:102570004FF0007393FAA3F3B3FA83F303F01F034E
:10258000012202FA03F3194206D1FEF7A3FF001B52
:102590000228E7D9032024E0002022E0002020E0E8
:1025A000208190100010024000700040012B1AD0D2
:1025B0000F4B5B6803F48031226A914201D0012005
:1025C0000FE003F47013626A93420ED0012008E01A
:1025D00001207047012004E0032002E0032000E016
:1025E000002002B070BD0120FBE70020F9E700BF2A
:1025F00000100240164B5B6803F00C02082A24D13D
:1026000003F470114FF4701292FAA2F2B2FA82F24D
:1026100021FA02F20F49885C0D4AD26A02F00F02D9
:102620000F2191FAA1F1B1FA81F1CA400A498A5CFD
:1026300013F4803F03D1094B03FB00F07047084BB4
:10264000B3FBF2F303FB00F070470548704700BF8F
:10265000001002408CA000089CA0000800093D006A
:1026600000127A00002800F0C18070B50446614B6A
:102670001B6803F007038B420CD25E4A136823F0F9
:1026800007030B431360136803F00703994201D05B
:10269000012070BD236813F0020F06D0564A53681C
:1026A00023F0F003A068034353600D46236813F042
:1026B000010F5AD06368012B2DD0022B40D002228B
:1026C00092FAA2F24C4A1068022292FAA2F2B2FAEC
:1026D00082F202F01F02012101FA02F2104200F020
:1026E000878045494A6822F0030213434B60FEF796
:1026F000F1FE0646404B5B6803F00C036268B3EBE7
:10270000820F32D0FEF7E6FE801B41F288339842FA
:10271000F0D9032070BD4FF4003292FAA2F2364A8B
:1027200010684FF4003292FAA2F2B2FA82F202F08A
:102730001F02012101FA02F21042D2D1012070BD24
:102740004FF0007292FAA2F22B4A10684FF000721A
:1027500092FAA2F2B2FA82F202F01F02012101FA09
:1027600002F21042BDD1012070BD224B1B6803F064
:1027700007039D420CD21F4A136823F007032B4323
:102780001360136803F007039D4201D0012070BD60
:10279000236813F0040F06D0174A536823F4E0634C
:1027A000E1680B435360236813F0080F07D0124A07
:1027B000536823F46053216943EAC1035360FFF770
:1027C00019FF0D4B5B6803F0F003F02292FAA2F2BE
:1027D000B2FA82F2D340094AD35CD840084B186061
:1027E000084B186803F038FA002070BD01207047CC
:1027F000012070BD0020024000100240D0A000085F
:102800000C00002004000020014B1868704700BF36
:102810000C00002008B5FFF7F7FF074B5B6803F4D7
:10282000E0634FF4E06292FAA2F2B2FA82F2D3408D
:10283000024AD35CD84008BD00100240E0A0000866
:1028400008B5FFF7E1FF074B5B6803F460534FF4F3
:10285000605292FAA2F2B2FA82F2D340024AD35CF8
:10286000D84008BD00100240E0A000080F2303601C
:102870000B4B5A6802F0030242605A6802F0F00201
:1028800082605A6802F4E062C2605B68DB0803F4AD
:10289000E0630361034B1B6803F007030B607047A1
:1028A0000010024000200240F0B583B004460368E7
:1028B00013F4803F48D0934BDB6913F0805F40F006
:1028C000D580904BDA6942F08052DA61DB6903F01F
:1028D00080530193019B01258B4B1B6813F4807F70
:1028E00000F0C680874B1B6A13F4407322D06268E5
:1028F00002F4407293421DD08248016A21F440766E
:102900004FF4803393FAA3F2B2FA82F27F4F3A4443
:1029100092004FF0010EC2F800E093FAA3F3B3FA6D
:1029200083F33B449B0000221A60066211F0010F02
:1029300040F0B380734A136A23F4407361680B4319
:102940001362002D40F0D580236813F0010F06D0EC
:102950006C4A136B23F00303A1680B4313632368D2
:1029600013F0020F06D0674A136B23F44033E1687B
:102970000B431363236813F0040F06D0614A136BF3
:1029800023F4402321690B431363236813F0200FC2
:1029900006D05C4A136B23F01003E1690B43136309
:1029A000236813F4003F06D0564A536823F480038B
:1029B000A16B0B435360236813F0400F06D0514ABC
:1029C000136B23F02003216A0B431363236813F076
:1029D000080F06D04B4A136B23F4401361690B4375
:1029E0001363236813F0100F06D0464A136B23F4C9
:1029F0004003A1690B431363236813F4007F06D0DF
:102A0000404A536823F40003E16A0B435360236890
:102A100013F0800F06D03B4AD36A23F4F873616A3F
:102A20000B43D362236813F4807F06D0354AD36A00
:102A300023F47853A16A0B43D362236813F4805FB5
:102A400006D0304A136B23F48073216B0B4313635E
:102A5000236813F4005F53D02A4A136B23F40073E6
:102A6000616B0B431363002003B0F0BD002533E717
:102A7000254A136843F480731360FEF72BFD064666
:102A8000214B1B6813F4807F7FF42CAFFEF722FDEF
:102A9000801B6428F4D90320E6E7FEF71BFD0646F9
:102AA00015E0184B196A022393FAA3F3B3FA83F3E0
:102AB00003F01F03012202FA03F319427FF43AAF35
:102AC000FEF708FD801B41F28833984216D8022396
:102AD00093FAA3F293FAA3F3B3FA83F35B0943F0F7
:102AE0000203022BDDD0022393FAA3F3054B596AAC
:102AF000D9E7D36923F08053D36125E70320B3E7F7
:102B00000020B1E7001002400070004000819010EA
:102B100030B4036A23F001030362036A44688269E4
:102B200022F4803222F073020D682A4323F002035C
:102B30008D682B431C4DA8420FD005F50065A842B7
:102B40000BD005F54065A84207D005F58065A84281
:102B500003D005F58065A84205D123F00803CD68B0
:102B60002B4323F00403104DA8420FD005F5006558
:102B7000A8420BD005F54065A84207D005F5806551
:102B8000A84203D005F58065A84205D124F440741D
:102B90004D692C438D692C43446082614A684263CD
:102BA000036230BC704700BF002C014030B4036AA0
:102BB00023F480730362036A4468C26922F480329A
:102BC00022F073020D682A4323F400738D6843EAF0
:102BD0000523184DA84225D005F50065A84221D04F
:102BE000144DA8420FD005F50065A8420BD005F59D
:102BF0004065A84207D005F58065A84203D005F5D9
:102C00008065A84207D124F440544D6944EA051474
:102C10008D6944EA05144460C2614A68C263036274
:102C200030BC704723F40063CD6843EA052323F4E6
:102C30008063D5E7002C014030B4036A23F480534D
:102C40000362036A4468C26922F0807222F4E64299
:102C50000D6842EA052223F400538D6843EA0533E8
:102C60000F4DA8420FD005F50065A8420BD005F521
:102C70004065A84207D005F58065A84203D005F558
:102C80008065A84204D124F480444D6944EA851447
:102C90004460C2614A680264036230BC704700BF8E
:102CA000002C014030B4036A23F480330362036ACA
:102CB0004468426D22F4803222F070020D682A438B
:102CC00023F400338D6843EA05430F4DA8420FD02B
:102CD00005F50065A8420BD005F54065A84207D070
:102CE00005F58065A84203D005F58065A84204D1AA
:102CF00024F480344D6944EA0524446042654A68FE
:102D00008265036230BC7047002C014030B4036A16
:102D100023F480130362036A4468426D22F08072D8
:102D200022F4E0420D6842EA052223F400138D6884
:102D300043EA05530F4DA8420FD005F50065A842A0
:102D40000BD005F54065A84207D005F58065A8427F
:102D500003D005F58065A84204D124F480244D6990
:102D600044EA8524446042654A68C265036230BC17
:102D7000704700BF002C014010B4036A046A24F0BD
:102D800001040462846924F0F00444EA021223F08E
:102D90000A030B43826103625DF8044B704710B471
:102DA000036A23F0100303628469036A24F4704405
:102DB00044EA023223F0A00343EA01138261036272
:102DC0005DF8044B7047836823F07003194341F0AA
:102DD0000701816070470000022380F83D300268DF
:102DE0009168084B0B40062B06D0B3F5803F03D00B
:102DF000136843F001031360012380F83D30002085
:102E0000704700BF070001000268D36843F0010368
:102E1000D36002689168064B0B40062B06D0B3F5D1
:102E2000803F03D0136843F0010313600020704714
:102E3000070001007047704770477047704710B532
:102E4000044603681A6912F0020F11D0DA6812F012
:102E5000020F0DD06FF002021A610123037703689D
:102E60009B6913F0030F79D0FFF7E6FF0023237768
:102E700023681A6912F0040F12D0DA6812F0040FF6
:102E80000ED06FF004021A610223237723689B6936
:102E900013F4407F68D02046FFF7CEFF002323774E
:102EA00023681A6912F0080F12D0DA6812F0080FBE
:102EB0000ED06FF008021A61042323772368DB69C0
:102EC00013F0030F57D02046FFF7B6FF00232377F8
:102ED00023681A6912F0100F12D0DA6812F0100F7E
:102EE0000ED06FF010021A61082323772368DB6984
:102EF00013F4407F46D02046FFF79EFF0023237740
:102F000023681A6912F0010F03D0DA6812F0010F7A
:102F10003FD123681A6912F0800F03D0DA6812F0EB
:102F2000800F3DD123681A6912F4807F03D0DA68DC
:102F300012F0800F3BD123681A6912F0400F03D0C2
:102F4000DA6812F0400F39D123681A6912F0200FA5
:102F500003D0DA6812F0200F37D110BDFFF76BFFF6
:102F60002046FFF76AFF81E72046FFF764FF20460F
:102F7000FFF763FF92E72046FFF75DFF2046FFF76C
:102F80005CFFA3E72046FFF756FF2046FFF755FFFB
:102F9000B4E76FF001021A61204602F02FFEB8E795
:102FA0006FF080021A61204600F051FBBAE76FF41F
:102FB00080721A61204600F04BFBBCE76FF04002C4
:102FC0001A612046FFF73AFFBEE76FF020021A6150
:102FD000204600F03BFBC0E703682C4A90420ED02D
:102FE000B0F1804F0BD0A2F59432904207D002F599
:102FF0008062904203D002F59632904203D123F0D2
:1030000070034A681343214A90421AD0B0F1804FAE
:1030100017D0A2F59432904213D002F5806290420C
:103020000FD002F5963290420BD002F540629042EA
:1030300007D002F58062904203D002F58062904290
:1030400003D123F44073CA68134323F080034A6911
:10305000134303608B68C3620B6883620B4B984217
:103060000FD003F5006398420BD003F540639842FC
:1030700007D003F58063984203D003F5806398423C
:1030800001D10B690363012343617047002C0140A8
:10309000A8B110B5044690F83D305BB1022384F826
:1030A0003D30211D2068FFF797FF012384F83D3054
:1030B000002010BD80F83C3002F098FFEEE70120C0
:1030C0007047A8B110B5044690F83D305BB10223BB
:1030D00084F83D30211D2068FFF77EFF012384F82E
:1030E0003D30002010BD80F83C30FFF7A3FEEEE736
:1030F00001207047002849D0F8B505460C4690F8E5
:103100003D30002B3DD0022385F83D30294651F853
:10311000042B936823F4A03323F0070393602868FB
:10312000FFF75AFF286886688369026A21680E43A0
:1031300023F4407323F00303A168A76941EA072140
:103140000B4323F47C4323F0FC03E168E76941EA85
:1031500007210B432769216A090341EA07110B4341
:1031600022F0AA026168646941EA04110A43866098
:1031700029688B612B681A62012385F83D30002095
:10318000F8BD80F83C3002F0D9FEBCE70120704762
:1031900030B4036A23F010030362036A446882694F
:1031A00022F0807222F4E6420D6842EA052223F002
:1031B00020038D6843EA0513184DA84225D005F574
:1031C0000065A84221D0154DA8420FD005F5006535
:1031D000A8420BD005F54065A84207D005F58065EB
:1031E000A84203D005F58065A84207D124F44064C5
:1031F0004D6944EA85048D6944EA8504446082612E
:103200004A688263036230BC704723F08003CD6854
:1032100043EA051323F04003D5E700BF002C01402B
:1032200038B590F83C30012B00F092800D460446F2
:10323000012380F83C30022380F83D30142A1ED848
:10324000DFE802F00B1D1D1D241D1D1D381D1D1D59
:103250004B1D1D1D5F1D1D1D72000068FFF758FCF2
:103260002268936943F0080393612268936923F00D
:10327000040393612268936929690B4393610123D5
:1032800084F83D30002084F83C0038BD0068FFF72A
:103290007FFF2268936943F4006393612268936916
:1032A00023F48063936122689369296943EA0123C7
:1032B0009361E4E70068FFF779FC2268D36943F083
:1032C0000803D3612268D36923F00403D361226821
:1032D000D36929690B43D361D1E70068FFF7ACFCE0
:1032E0002268D36943F40063D3612268D36923F46D
:1032F0008063D3612268D369296943EA0123D361DA
:10330000BDE70068FFF7CEFC2268536D43F0080369
:1033100053652268536D23F0040353652268536D8F
:1033200029690B435365AAE70068FFF7EFFC2268A1
:10333000536D43F4006353652268536D23F4806337
:1033400053652268536D296943EA0123536596E763
:10335000022038BD10B4846824F47F4442EA032379
:1033600019430C4384605DF8044B704790F83C307F
:10337000012B64D010B50446012380F83C300223B1
:1033800080F83D30026890682E4B034093600B68D4
:10339000402B4AD013D9602B3DD01ED9702B28D09A
:1033A000B3F5005F30D1CB684A6889682068FFF7C1
:1033B000D1FF2268936843F48043936024E0102B8C
:1033C00006D004D9202B03D0302B01D01CE0DBB970
:1033D00019462068FFF7F7FC16E0502B14D1CA6895
:1033E00049682068FFF7C8FC50212068FFF7EBFC14
:1033F0000AE0CB684A6889682068FFF7ABFF22685B
:10340000936843F077039360012384F83D300020F4
:1034100084F83C0010BDCA6849682068FFF7BFFC0B
:1034200060212068FFF7CFFCEEE7CA684968206892
:10343000FFF7A2FC40212068FFF7C5FCE4E702206B
:10344000704700BF8800FEFF10B401F01F01012388
:1034500003FA01F4036A23EA04030362036A8A405D
:10346000134303625DF8044B7047000010B5044637
:1034700001220068FFF7E8FF2368194A934226D02B
:1034800002F50062934224D002F54062934222D0BA
:1034900002F58062934220D002F58062934214D0FC
:1034A00000221AB15A6C42F400425A6422689168B0
:1034B0000C4B0B40062B06D0B3F5803F03D01368AE
:1034C00043F001031360002010BD0122E9E701224F
:1034D000E7E70122E5E70122E3E70122E1E700BF98
:1034E000002C01400700010010B5044661B1042919
:1034F00016D0012200210068FFF7A6FF0122042157
:103500002068FFF7A1FF04E0012200210068FFF717
:103510009BFF2268136843F001031360002010BD75
:10352000012204210068FFF78FFFF2E790F83C309A
:10353000012B3FD030B4012380F83C30022380F8C7
:103540003D300268536894681B4DAA422DD005F5A2
:103550000065AA4229D023F070030D682B43536005
:103560000368154A934212D0B3F1804F0FD0A2F5F1
:10357000943293420BD002F58062934207D002F559
:103580009632934203D002F54062934204D124F074
:1035900080048A6814439C60012380F83D30002336
:1035A00080F83C30184630BC704723F470034D68F7
:1035B0002B43D0E702207047002C014090F83C30AC
:1035C000012B3FD010B4012380F83C30CB6823F4AA
:1035D00040738A68134323F480634A68134323F4D7
:1035E00000630A68134323F480530A69134323F4E6
:1035F00000534A69134323F480438A6A134323F434
:1036000070238A6943EA024302680F4CA2420BD03E
:1036100004F50064A24207D05364002380F83C30D4
:1036200018465DF8044B704723F470034C6A43EA74
:10363000045323F08073CC69234323F00073096A99
:103640000B43E9E702207047002C014070477047A8
:1036500070470268136823F49073136002689368DC
:1036600023F00103936020238367002303667047E0
:10367000436F212B00D07047B0F852309BB273B12A
:103680000368C26C12781A85C36C0133C364B0F846
:1036900052309BB2013B9BB2A0F85230EBE702687C
:1036A000136823F0800313600268136843F040033B
:1036B00013607047436F212B00D07047B0F8523031
:1036C0009BB283B1C36C02681B88C3F308031385E4
:1036D000C36C0233C364B0F852309BB2013B9BB25F
:1036E000A0F85230E9E70268136823F08003136002
:1036F0000268136843F0400313607047436F202B48
:1037000001D00220704739B342B390F87030012BDA
:1037100026D0012380F87030C164A0F85020A0F8B2
:10372000522000234366C367212343678368B3F5B0
:10373000805F0BD00B4B4366002380F8703001682C
:103740000A6842F080020A60184670470369002B3D
:10375000F0D1054B4366EFE7012070470120704729
:103760000220704771360008B5360008704708B56A
:1037700001680A6822F040020A60202242670022A3
:103780004266FFF7F3FF08BD7047000038B50446F6
:103790000168CB6908688D6840F60F021A400CD1A9
:1037A00013F0200F09D010F0200F06D0236E002B4D
:1037B00000F0A1802046984738BD002A7DD015F042
:1037C000010202D110F4907F77D013F0010F07D0DF
:1037D00010F4807F04D001250D62E16F2943E16779
:1037E00013F0020F07D032B1216802250D62E16F9C
:1037F00041F00401E16713F0040F07D032B12168F2
:1038000004250D62E16F41F00201E16713F0080F3A
:1038100009D010F0200F00D12AB1226808211162CE
:10382000E26F0A43E26713F4006F0AD010F0806F72
:1038300007D022684FF400611162E26F42F020026B
:10384000E267E26F002A56D013F0200F06D010F086
:10385000200F03D0236E0BB120469847E26F2368F8
:103860009B6813F0400F02D112F0280F1FD02046A2
:10387000FFF7EFFE23689A6812F0400F13D09A68A2
:1038800022F040029A60E36E4BB11D4A5A63E06E2B
:10389000FEF73CFA78B3E06E436B984738BD20469C
:1038A000FFF772FF38BD2046FFF76EFF38BD204698
:1038B000FFF76AFF0023E36738BD13F4801F02D0CF
:1038C00015F4800F0AD113F0800F0ED010F0800F86
:1038D0000BD0636E7BB12046984738BD4FF4801300
:1038E0000B62204600F091FA38BD13F0400F02D071
:1038F00010F0400F00D138BD2046FFF738FFFAE73F
:103900000539000808B5406A0023A0F85A30A0F82D
:103910005230FFF739FF08BD10B5044683680269CD
:10392000134342691343C269134301680A6822F4CE
:10393000164222F00C0213430B600268536823F412
:103940004053C1680B4353608369026A13430168A3
:103950008A6822F4306213438B600368964A93426C
:103960001FD0964A93422ED0954A934244D0954A0E
:1039700093425AD0944A934270D01023E269B2F530
:10398000004F00F08680082B00F20F81DFE813F073
:10399000D000E500EF000D01FA000D010D010D0151
:1039A00004018A4B1B6B03F00303032B09D8DFE8E8
:1039B00003F00204066E0123E0E70423DEE7082398
:1039C000DCE71023DAE7814B1B6B03F44033B3F5DC
:1039D000803F0BD007D9B3F5003F09D0B3F5403F86
:1039E00008D10223CAE72BB90023C7E70423C5E7A0
:1039F0000823C3E71023C1E7744B1B6B03F4402378
:103A0000B3F5802F0BD007D9B3F5002F09D0B3F54C
:103A1000402F08D10223B1E72BB90023AEE70423DE
:103A2000ACE70823AAE71023A8E7684B1B6B03F455
:103A30004013B3F5801F0BD007D9B3F5001F09D091
:103A4000B3F5401F08D1022398E72BB9002395E76F
:103A5000042393E7082391E710238FE75B4B1B6B4D
:103A600003F44003B3F5800F0BD007D9B3F5000F73
:103A700009D0B3F5400F08D102237FE72BB900230B
:103A80007CE704237AE7082378E7102376E702230C
:103A900074E7082B49D8DFE803F0051E29483448AD
:103AA00048483F00FEF7B6FE6268530803EB400348
:103AB000B3FBF2F39BB20020A3F110014FF6EF72BB
:103AC000914275D89AB222F00F02C3F34203134316
:103AD0002268D3603DE0FEF7B3FE6268530803EB53
:103AE0004003B3FBF2F39BB20020E5E762685308A2
:103AF00003F5740303F51053B3FBF2F39BB20020FC
:103B0000DAE7FEF777FD6268530803EB4003B3FB87
:103B1000F2F39BB20020CFE76268530803F58033CD
:103B2000B3FBF2F39BB20020C6E701200023C3E7FA
:103B3000FEF770FE626800EB5203B3FBF2F39BB238
:103B40000020A3F110014FF6EF72914232D82268A3
:103B5000D36000232366636610BDFEF771FE6268C2
:103B600000EB5203B3FBF2F39BB20020E9E762687B
:103B7000530803F5F40303F59053B3FBF2F39BB240
:103B80000020DEE7FEF736FD626800EB5203B3FB70
:103B9000F2F39BB20020D4E76268530803F50043B8
:103BA000B3FBF2F39BB20020CBE701200023C8E770
:103BB0000120CEE70120CCE700380140004400405E
:103BC00000480040004C00400050004000100240FF
:103BD000436A13F0010F06D00268536823F40033E0
:103BE000816A0B435360436A13F0020F06D00268E8
:103BF000536823F48033C16A0B435360436A13F064
:103C0000040F06D00268536823F48023016B0B4332
:103C10005360436A13F0080F06D00268536823F418
:103C20000043416B0B435360436A13F0100F06D0FF
:103C30000268936823F48053816B0B439360436A5B
:103C400013F0200F06D00268936823F40053C16B71
:103C50000B439360436A13F0400F0AD00268536825
:103C600023F48013016C0B435360036CB3F5801F86
:103C70000BD0436A13F0800F06D00268536823F418
:103C80000023816C0B43536070470268536823F430
:103C9000C003416C0B435360EBE72DE9F041044650
:103CA0000F4616469846069D2368DB6937EA0303EC
:103CB0000CBF01230023B3423CD1B5F1FF3FF3D049
:103CC000FDF708FCA0EB0800854220D3FDB1236876
:103CD0001A6812F0040FE7D0DA6912F4006FE3D02B
:103CE0004FF400621A622268136823F4D0731360E1
:103CF0002268936823F00103936020236367A3671E
:103D0000E367002384F870300320BDE8F081226867
:103D1000136823F4D07313602268936823F00103BF
:103D2000936020236367A367002384F87030032027
:103D3000BDE8F0810020BDE8F08130B583B00446D5
:103D40000023C367FDF7C6FB054623681B6813F015
:103D5000080F0CD123681B6813F0040F15D1202322
:103D60006367A367002084F8700003B030BD6FF074
:103D70007E430093034600224FF400112046FFF7D4
:103D80008CFF0028E6D00320EFE76FF07E4300931E
:103D90002B4600224FF480012046FFF77EFF0028CB
:103DA000DDD00320E1E768B310B50446436F03B3E9
:103DB000242363672268136823F0010313602046FD
:103DC000FFF7AAFD01281FD0636ABBB922685368B8
:103DD00023F4904353602268936823F02A0393608E
:103DE0002268136843F0010313602046FFF7A5FF24
:103DF00010BD80F8703002F0EDFAD9E72046FFF7E9
:103E0000E7FEE3E70120704710BD7047842801D02A
:103E1000033070470020704708B501F003F8002018
:103E200008BD2DE9F04387B004460F464569BDB192
:103E30008669AEB1D0F80480D0F80090B0F90800DF
:103E4000FFF7E4FF22690296019500903B46494640
:103E5000404600F07BFF0590059807B0BDE8F08371
:103E600065682668D4F81080B4F90800FFF7CEFF23
:103E700005AB019300903B461FFA88F23146284675
:103E800000F09DFF0128E7D00020E6E708B50346D3
:103E900000B90123184601F02FF9002008BD00F1F8
:103EA000080343604FF0FF328260C3600361002368
:103EB0000360704700230361704743684B609A6852
:103EC0008A609A68516099600861036801330360F1
:103ED000704730B40D68B5F1FF3F02D000F1080221
:103EE00002E0026904E01A4653681C68A542FAD24F
:103EF00053684B6099608A605160086103680133C0
:103F0000036030BC704703694268816891608268D1
:103F1000416851605A68904206D0002202611A68D6
:103F2000013A1A601868704782685A60F5E7000025
:103F300082B0002301930D4B1B68B3F1FF3F08D003
:103F40004FF0500383F31188BFF36F8FBFF34F8F90
:103F5000FEE74FF0500383F31188BFF36F8FBFF379
:103F60004F8F019B002BFCD002B07047080000204F
:103F700008480068006880F308884FF0000080F36C
:103F8000148862B661B6BFF34F8FBFF36F8F00DF47
:103F900000BF000008ED00E0DFF80C00016841F40C
:103FA000700101607047000088ED00E04FF0807301
:103FB00040F8043C21F0010140F8081C054B40F892
:103FC0000C3C40F8202C6FF0020340F8243C4438AD
:103FD000704700BF313F00080000000000000000F3
:103FE000074B19680868B0E8F04F80F30988BFF301
:103FF0006F8F4FF0000080F311887047AFF300809F
:10400000AC4600204FF0500383F31188BFF36F8F4D
:10401000BFF34F8F0A4A136801331360012B0DD190
:10402000084B1B6813F0FF0F08D04FF0500383F3C9
:104030001188BFF36F8FBFF34F8FFEE7704700BF4C
:104040000800002004ED00E0094B1B6843B94FF065
:10405000500383F31188BFF36F8FBFF34F8FFEE7D9
:10406000013B034A13600BB983F31188704700BF0B
:104070000800002000000000000000000000000018
:10408000EFF30980BFF36F8F154B1A681EF0100F06
:1040900008BF20ED108A20E9F04F10602DE90900DB
:1040A0004FF0500080F31188BFF34F8FBFF36F8F35
:1040B00001F04AF84FF0000080F3118809BC19683C
:1040C0000868B0E8F04F1EF0100F08BFB0EC108A7F
:1040D00080F30988BFF36F8F704700BFAFF3008094
:1040E000AC46002008B54FF0500383F31188BFF3AE
:1040F0006F8FBFF34F8F00F0F1FE18B14FF0805279
:10410000024B1A60002383F3118808BD04ED00E020
:10411000084A0023136008490B60084B1B680849D4
:10412000A1FB03139B09013B06490B6007231360A6
:10413000704700BF10E000E018E000E00C00002035
:10414000D34D621014E000E03A4B1A683A4B9A42A1
:1041500008D14FF0500383F31188BFF36F8FBFF383
:104160004F8FFEE7334B1A68344B9A4208D14FF019
:10417000500383F31188BFF36F8FBFF34F8FFEE7B8
:1041800010B582B02E4B1A78D2B20192FF221A706B
:104190001B78DBB28DF803309DF8033003F0500339
:1041A000284A13700722284B1A6009E0264A136830
:1041B000013B13609DF803305B00DBB28DF80330E8
:1041C0009DF8033013F0800FF0D11F4B1B68032BB9
:1041D00008D04FF0500383F31188BFF36F8FBFF304
:1041E0004F8FFEE71B0203F4E063174A1360019B45
:1041F000DBB2134A1370154B1A6842F470021A604E
:104200001A6842F070421A60FFF782FF0024104BD8
:104210001C60FFF7C1FE0F4A136843F04043136070
:10422000FFF7A6FE00F090FFFFF782FE204602B0E7
:1042300010BD00BF00ED00E071C20F4170C20F4120
:1042400000E400E09C060020A006002020ED00E035
:104250000800002034EF00E0EFF305830F2B0FD9A7
:10426000104A9B5CDBB2104A1278934208D24FF09E
:10427000500383F31188BFF36F8FBFF34F8FFEE7B7
:104280000A4B1B6803F4E063094A1268934208D999
:104290004FF0500383F31188BFF36F8FBFF34F8F3D
:1042A000FEE77047F0E300E09C0600200CED00E024
:1042B000A006002038B5044610F0070F02D020F009
:1042C0000704083400F0FCFD114B1B6893B1114B3F
:1042D0001B681C4443F6F772944211D8A34211D2D2
:1042E0000B4A15681D440B4B1C6000F087FE5DB146
:1042F000284638BD084B23F00703054A1360E6E75C
:104300000025F2E70025F0E701F078FBF0E700BFB9
:10431000A4060020A8460020B006002040B14FF0BF
:10432000500383F31188BFF36F8FBFF34F8FFEE706
:10433000704710B50446FFF765FEA26BE36B9A4227
:1043400004D00024FFF780FE204610BD0124F9E7C9
:1043500010B50446FFF756FEA36B23B10024FFF708
:1043600073FE204610BD0124F9E770B504461646D9
:10437000856B026C4AB9036853BB406801F00EF8C4
:10438000002363600135A56370BD6EB9806802F0DB
:10439000FBF8226CA3681344A3606268934219D3AC
:1043A0002368A3600020EDE7C06802F0EDF8236CFD
:1043B0005B42E2681A44E26021688A4202D2626883
:1043C0001344E360022E07D145B1013D0020D9E737
:1043D0000020D7E70020D5E70020D3E70020D1E771
:1043E000026C72B110B50346C4681444C4604068DE
:1043F000844201D31868D8600846D96802F0C4F82E
:1044000010BD704738B50546FFF7FCFD95F84540EF
:1044100064B201E0013C64B2002C0ADD6B6A43B176
:1044200005F1240000F012FF0028F3D000F0A0FFF7
:10443000F0E7FF2385F84530FFF706FEFFF7E2FDC2
:1044400095F8444064B201E0013C64B2002C0ADDFE
:104450002B6943B105F1100000F0F8FE0028F3D0FD
:1044600000F086FFF0E7FF2385F84430FFF7ECFD0E
:1044700038BD000038B530B304460D46FFF7C2FD25
:104480002168E26B236C03FB021060600020A063D4
:10449000A160013A02FB0313E360FF2384F8443078
:1044A00084F84530C5B92369F3B104F1100000F078
:1044B000CDFEC8B14FF080520D4B1A60BFF34F8F45
:1044C000BFF36F8F10E04FF0500383F31188BFF3F9
:1044D0006F8FBFF34F8FFEE704F11000FFF7DFFC93
:1044E00004F12400FFF7DBFCFFF7AEFD012038BD2F
:1044F00004ED00E010B5029B0C4639B11A60D86398
:104500001C6401211846FFF7B5FF10BD1B60F6E7DC
:1045100040B94FF0500383F31188BFF36F8FBFF39F
:104520004F8FFEE710B584B0044663B1A2B1A9B1C4
:104530000120A8B94FF0500383F31188BFF36F8FA8
:10454000BFF34F8FFEE74FF0500383F31188BFF3A3
:104550006F8FBFF34F8FFEE70120EAE70020E8E707
:104560000AB901B1002040B94FF0500383F311881C
:10457000BFF36F8FBFF34F8FFEE748200390039880
:10458000482808D04FF0500383F31188BFF36F8F92
:10459000BFF34F8FFEE720461C46012384F84630C8
:1045A00000949DF81830FFF7A5FF204604B010BD19
:1045B00040B94FF0500383F31188BFF36F8FBFF3FF
:1045C0004F8FFEE7F0B583B0064611B101FB00F056
:1045D00000E0002017460C464830FFF76BFE05460A
:1045E00050B1002380F8463000903B4600F148026D
:1045F00021463046FFF77EFF284603B0F0BD00009D
:10460000F0B585B0019260B1044699B10125BDB9FC
:104610004FF0500383F31188BFF36F8FBFF34F8FB9
:10462000FEE74FF0500383F31188BFF36F8FBFF3A2
:104630004F8FFEE7026C0AB90125E8E70025E6E79F
:10464000022B09D06DB94FF0500383F31188BFF3EB
:104650006F8FBFF34F8FFEE7E26B012AF2D0002588
:10466000F0E71E460F4600F089FE10B9019B03B12A
:10467000002545B94FF0500383F31188BFF36F8FC6
:10468000BFF34F8FFEE700252CE032463946204627
:10469000FFF76BFE636A8BB104F1240000F0D6FDD6
:1046A00038B14FF08052374B1A60BFF34F8FBFF3D2
:1046B0006F8FFFF7C9FC012005B0F0BD0028F8D0CE
:1046C0004FF080522F4B1A60BFF34F8FBFF36F8FA5
:1046D000EFE7FFF7B9FC0020EEE72046FFF792FE78
:1046E00000F08CFCFFF78EFCA26BE36B9A42CCD3FC
:1046F000022ECAD0019B002BEBD01DB902A800F0FE
:10470000EBFD0125FFF7A0FC00F0DAFBFFF77AFCD8
:1047100094F844305BB2B3F1FF3F02D1002384F838
:10472000443094F845305BB2B3F1FF3F02D100232F
:1047300084F84530FFF788FC01A902A800F0D8FDF5
:10474000C8B92046FFF7F5FD0028C6D0019904F14D
:10475000100000F047FD2046FFF754FE00F04EFC2D
:104760000028BFD14FF08052064B1A60BFF34F8F25
:10477000BFF36F8FB6E72046FFF744FE00F03EFC24
:10478000002099E704ED00E02DE9F84360B104460C
:1047900099B10120B8B94FF0500383F31188BFF3EA
:1047A0006F8FBFF34F8FFEE74FF0500383F31188F5
:1047B000BFF36F8FBFF34F8FFEE7006C08B9012086
:1047C000E8E70020E6E7022B09D068B94FF0500374
:1047D00083F31188BFF36F8FBFF34F8FFEE7E56B55
:1047E000012DF2D00020F0E71F4690468946FFF7E2
:1047F00033FDEFF311864FF0500383F31188BFF3BD
:104800006F8FBFF34F8FA26BE36B9A4201D3022FDE
:1048100021D194F845506DB23A4649462046FFF7FB
:10482000A4FDB5F1FF3F10D1636AB3B104F12400D8
:1048300000F00CFD98B1B8F1000F12D00120C8F8BB
:10484000000086F31188BDE8F8836B1C5BB284F826
:1048500045300120F5E70020F3E70120F1E70120D2
:10486000EFE70120EDE70000F0B585B0019260B1FF
:10487000044699B10125BDB94FF0500383F3118867
:10488000BFF36F8FBFF34F8FFEE74FF0500383F3FB
:104890001188BFF36F8FBFF34F8FFEE7036C0BB927
:1048A0000125E8E70025E6E70E4600F067FD10B9B0
:1048B000019B03B1002545B94FF0500383F31188E4
:1048C000BFF36F8FBFF34F8FFEE700272FE0314616
:1048D0002046FFF785FD013DA563236963B104F11F
:1048E000100000F0B3FC38B14FF08052344B1A6026
:1048F000BFF34F8FBFF36F8FFFF7A6FB012005B00B
:10490000F0BDFFF7A1FB0020F9E702A800F0E4FCEE
:10491000012716E0002384F844301EE0002384F8C9
:10492000453020E02046FFF76DFD00F067FBFFF704
:1049300069FBA56B002DCAD1019B002BE1D0002F94
:10494000E3D0FFF781FB00F0BBFAFFF75BFB94F8C5
:1049500044305BB2B3F1FF3FDCD094F845305BB23A
:10496000B3F1FF3FDAD0FFF76FFB01A902A800F017
:10497000BFFCC8B92046FFF7EBFC0028D2D0019954
:1049800004F1240000F02EFC2046FFF73BFD00F070
:1049900035FB0028CBD14FF08052094B1A60BFF392
:1049A0004F8FBFF36F8FC2E72046FFF72BFD00F05C
:1049B00025FB2046FFF7CCFC0028B8D000209EE75E
:1049C00004ED00E00023072B0CD8074A52F83320EF
:1049D0000AB10133F7E7044A42F8331002EBC3038C
:1049E00058607047704700BF4C50002070B50446B7
:1049F0000D461646FFF706FB94F844305BB2B3F160
:104A0000FF3F0DD094F845305BB2B3F1FF3F0BD0C0
:104A1000FFF71AFBA36B5BB12046FFF7F3FC70BDF9
:104A2000002384F84430EDE7002384F84530EFE7B5
:104A30003246294604F1240000F0ECFBECE70000CC
:104A40000A4B1B681B684BB901234BB9074B1B680A
:104A5000DB68DB685A68064B1A6070470023F4E78E
:104A60004FF0FF32024B1A60704700BFB046002083
:104A7000844700202DE9F04780469946089D099F0C
:104A80000A9C266B02F18042013A06EB820626F070
:104A9000070600230F2B07D8C85CE21882F8340001
:104AA000CA5C0AB10133F5E7002384F84330062DD0
:104AB00000D90625E56265644FF0000AC4F848A0F5
:104AC000201DFFF7F7F904F11800FFF7F3F924614F
:104AD000C5F10705A5616462C4F84CA084F850A034
:104AE0004A4641463046FFF761FA206007B13C6014
:104AF000BDE8F08738B5002407E004EB840293009A
:104B00000E481844FFF7CBF90134062CF5D90C4DAB
:104B10002846FFF7C4F90B4C2046FFF7C0F90A48B6
:104B2000FFF7BDF90948FFF7BAF90948FFF7B7F9E8
:104B3000084B1D60084B1C6038BD00BFB846002004
:104B40005C470020704700208C470020B8470020B9
:104B5000A4470020B0460020B446002010B504460B
:104B6000FFF750FA204A1368013313601F4B1B688C
:104B7000002B31D01E4B1B683BB91C4B1B68DA6AFB
:104B8000E36A9A4201D8194B1C601A4A1368013330
:104B90001360E36A01229A401749086802430A60D9
:104BA00003EB83039A00211D14481044FFF785F995
:104BB000FFF74AFA0E4B1B686BB10C4B1B68DA6AA5
:104BC000E36A9A4207D24FF080520D4B1A60BFF34E
:104BD0004F8FBFF36F8F10BD044B1C601368012B08
:104BE000D3D1FFF787FFD0E744470020AC46002031
:104BF000A04700205447002058470020B846002016
:104C000004ED00E010B5044690F8513063B1012B7B
:104C100011D0022B12D04FF0500383F31188BFF351
:104C20006F8FBFF34F8FFEE7006BFFF777FB2046D8
:104C3000FFF774FB10BDFFF771FB10BD10BD000046
:104C40000F4B1B68D3B110B5FFF7DCF90D4BDB68D8
:104C5000DC68201DFFF757F90B4A1368013B13600E
:104C6000074A1368013B1360FFF7EEF92046FFF790
:104C7000C9FF034B1B68002BE6D110BD704700BF76
:104C800048470020B84700204447002008B5FFF7F8
:104C9000D7FF064B1B68012BF9D94FF08052044B0C
:104CA0001A60BFF34F8FBFF36F8FF0E7B846002055
:104CB00004ED00E070B504460E461D4B1D681D4B0B
:104CC00018680430FFF71FF950B91A4B1B68DA6AED
:104CD000012303FA02F218490B6823EA02030B606E
:104CE000B4F1FF3F13D02C44124B1B685C60A5420B
:104CF00016D8124B18680F4B19680431FFF7E9F802
:104D00000F4B1B689C4201D20D4B1C6070BD002EE6
:104D1000E9D0084B196804310A48FFF7CEF870BD96
:104D2000094B1868034B19680431FFF7D2F870BDBE
:104D3000CC470020AC46002058470020B046002059
:104D400084470020A4470020B446002070B586B0F8
:104D50000B9D0C9C75B1B4B154260496049E542E40
:104D60001AD04FF0500383F31188BFF36F8FBFF356
:104D70004F8FFEE74FF0500383F31188BFF36F8F1F
:104D8000BFF34F8FFEE74FF0500383F31188BFF35B
:104D90006F8FBFF34F8FFEE72563022584F85150D4
:104DA00000250395029405AD01950A9D0095FFF736
:104DB00061FE2046FFF7D2FE059806B070BD2DE9D2
:104DC000F04385B006460F46154698469000FFF71B
:104DD00071FA10B381465420FFF76CFA0446C0B153
:104DE000C0F83090DCB1002384F851300393029472
:104DF0000D9B01930C9B009343462A46394630464F
:104E0000FFF738FE2046FFF7A9FE012005B0BDE8F8
:104E1000F0834846FFF782FAE4E70024E2E74FF028
:104E2000FF30F3E710B588B000240594069407AA74
:104E300006A905A800F0E4FD059B0293069B0193DB
:104E400000942346079A19491948FFF77FFF48B194
:104E50000120012808D0012809D0B0F1FF3F1BD064
:104E600008B010BD0020F4E700F05EFBF3E74FF060
:104E7000500383F31188BFF36F8FBFF34F8F4FF051
:104E8000FF320C4B1A6001220B4B1A6000220B4BB5
:104E90001A60FFF759F9E3E74FF0500383F31188E5
:104EA000BFF36F8FBFF34F8FFEE700BFACA00008CA
:104EB0008D4C000884470020A0470020CC470020EC
:104EC000024A136801331360704700BF5047002047
:104ED000014B1868704700BFCC470020F8B53C4B29
:104EE0001B68002B68D13B4B1D6801351D60C5B99F
:104EF000394B1B681B6843B14FF0500383F3118893
:104F0000BFF36F8FBFF34F8FFEE7334A1168334B08
:104F1000186810601960324A136801331360FFF794
:104F20008FFD304B1B689D423AD200242E4B1B68EC
:104F3000DB6A03EB83039A002C4B9B58012B40D96F
:104F400001243EE00124244B1B681B6853B300235B
:104F500053BB214B1B68DB68DE6873689D4228D316
:104F6000371D3846FEF7CFFFB36A1BB106F11800B4
:104F7000FEF7C9FFF36A01229A401D4908680243FF
:104F80000A6003EB83039A00394618481044FEF781
:104F900094FFF26A144B1B68DB6A9A42D2D2D2E7C2
:104FA0000024D0E70123D3E74FF0FF320D4B1A6006
:104FB000BCE70C4A1360B9E70E4A1368013313606B
:104FC00000240D4B1B6803B101242046F8BD00BF2F
:104FD00050470020CC470020B0460020B4460020B7
:104FE0008847002084470020AC460020B8460020B7
:104FF000584700204C470020D047002038B5354B9B
:105000001B6843B94FF0500383F31188BFF36F8FD0
:10501000BFF34F8FFEE7FEF7F5FF2E4B1A68013AFC
:105020001A601B68002B50D12B4B1B6823B900243E
:10503000FFF70AF8204638BD0024284B1B681BB335
:10504000264BDB68DC6804F11800FEF75CFF251DC9
:105050002846FEF758FFE36A01229A402049086873
:1050600002430A6003EB83039A0029461D4810445B
:10507000FEF723FFE26A1C4B1B68DB6A9A42DCD313
:1050800001221A4B1A60D8E70CB1FFF7D9FC184B74
:105090001C6874B9154B1B68CBB14FF08052154B8F
:1050A0001A60BFF34F8FBFF36F8F0124C0E7013C3D
:1050B00007D0FFF713FF0028F9D001220B4B1A602D
:1050C000F5E700220A4B1A60E4E70024B0E7002469
:1050D000AEE700BF50470020444700208C47002027
:1050E00058470020B8460020AC460020D04700209A
:1050F0004C47002004ED00E010B5A8B10446104B69
:105100001B6843B14FF0500383F31188BFF36F8FD7
:10511000BFF34F8FFEE7FFF7D3FE00212046FFF7D6
:10512000C9FDFFF76BFF00E0002038B94FF0805257
:10513000044B1A60BFF34F8FBFF36F8F10BD00BFDA
:105140005047002004ED00E0214B1B68C3B900224A
:10515000204B1A60204B1B68B3FA83F3DBB2C3F118
:105160001F0303EB83018A001C498A5862B94FF080
:10517000500383F31188BFF36F8FBFF34F8FFEE7A8
:105180000122144B1A60704710B414489A00D418C6
:10519000A10001444C6864684C601A4491000831D5
:1051A000084484420BD003EB83039A000B4B134457
:1051B0005B68DA680A4B1A605DF8044B70476068F8
:1051C00003EB83029100054A0A445060EBE700BFFD
:1051D00050470020D047002058470020B846002004
:1051E000AC46002040B94FF0500383F31188BFF361
:1051F0006F8FBFF34F8FFEE710B50C46044B196855
:105200001831FEF766FE01212046FFF753FD10BD61
:10521000AC46002038B570B10C4615460A4A1168F4
:105220001831FEF74AFE0DB14FF0FF3429462046F3
:10523000FFF740FD38BD4FF0500383F31188BFF3F3
:105240006F8FBFF34F8FFEE7AC46002038B5C368C1
:10525000DC6824B304F118052846FEF754FE184B09
:105260001B682BBB251D2846FEF74DFEE36A012275
:105270009A401449086802430A6003EB83039A00CA
:10528000294611481044FEF718FEE26A0F4B1B68CE
:10529000DB6A9A4211D901200D4B186038BD4FF0DE
:1052A000500383F31188BFF36F8FBFF34F8FFEE777
:1052B00029460848FEF701FEE7E7002038BD00BF99
:1052C0005047002058470020B8460020AC46002038
:1052D000D04700208C470020034B1B680360034B22
:1052E0001B684360704700BF88470020CC47002000
:1052F000F8B5E0B1054619B30C46FEF783FE1A4B2C
:1053000018686968421A2368B3F1FF3F28D02F68F4
:10531000164E3668B74201D0884223D29A4218D33B
:10532000002323600124FEF78FFE2046F8BD4FF0D6
:10533000500383F31188BFF36F8FBFF34F8FFEE7E6
:105340004FF0500383F31188BFF36F8FBFF34F8F7C
:10535000FEE79B1A23602846FFF7BEFF0024E2E722
:105360000024E0E70124DEE7CC4700208847002046
:105370000122014B1A607047D0470020054B1B6883
:1053800023B1054B1B681BB90220704701207047F1
:1053900000207047A04700205047002000284AD036
:1053A00038B50446274A1268904208D04FF050039F
:1053B00083F31188BFF36F8FBFF34F8FFEE7826CCB
:1053C00042B94FF0500383F31188BFF36F8FBFF3DF
:1053D0004F8FFEE7013A8264C06A616C88422CD02C
:1053E0006ABB251D2846FEF78EFD70B9E26A02EB06
:1053F00082018B001449CB583BB9012303FA02F216
:1054000012490B6823EA02030B60636CE362C3F189
:105410000702A261012404FA03F20C49086802435E
:105420000A6003EB83039A00294607481044FEF7FD
:1054300044FD204638BD00207047002038BD0020C4
:1054400038BD00BFAC460020B846002058470020B9
:10545000064B1A681368B3FA83F35B09036013B948
:10546000D368186870470020704700BFD4470020F9
:1054700008B54160006191420CD8D21A83699A4202
:1054800001D3012008BD011D094B1868FEF721FD5D
:10549000002008BD9A4201D2994206D2011D054B57
:1054A0001868FEF716FD002008BD012008BD00BFEA
:1054B000D8470020D447002030B583B0FEF7A2FDC6
:1054C000114B1B681BB1FEF7BFFD03B030BD0F4D84
:1054D0002846FEF7E4FC0E4C2046FEF7E0FC0D4BA0
:1054E0001D600D4B1C60002300930C4B0C4A0C21DB
:1054F0000A20FFF70DF8044B18600028E3D0094993
:10550000FFF760FADFE700BFC848002054480020DA
:1055100068480020D4470020D84700208048002059
:10552000DC470020B4A0000810B588B0FFF7C4FF26
:10553000154B1B681BB300240594069407AA06A903
:1055400005A800F069FA059B0293069B01930223CC
:1055500000932346079A0D490D48FFF7F7FB0D4BC3
:10556000186050B1012060B94FF0500383F31188E7
:10557000BFF36F8FBFF34F8FFEE72046F3E70020A6
:10558000F1E708B010BD00BFC8480020BCA000086B
:1055900065580008CC480020C0B130B585B015462C
:1055A0000446174A106840B31A46019102950394C5
:1055B00005291CDCFFF7E2FE022810D000231A4662
:1055C00001A90F480068FFF71BF814E04FF05003E3
:1055D00083F31188BFF36F8FBFF34F8FFEE7002374
:1055E000089A01A906480068FFF70AF803E00023BB
:1055F00001A9FFF7C9F805B030BD0020FBE700BFE7
:10560000C848002070B582B01A4B1B681A6852B3A4
:10561000DB681E68DC68251D2846FEF774FC636A9B
:1056200020469847E369012BEED1A36933449E429B
:1056300007D26360246129460E4B1868FEF749FCC7
:10564000E2E7002100910B4632462046FFF7A4FF17
:105650000028D9D14FF0500383F31188BFF36F8F27
:10566000BFF34F8FFEE7044A1068024908601360D9
:1056700002B070BDD4470020D847002038B5054699
:10568000FFF726FC0446074B1B68984205D300230E
:105690002B60044B1C60204638BDFFF7B3FF01238D
:1056A0002B60F6E77C48002070B582B005460E46B8
:1056B000144B1B68DB68DC68201DFEF724FCE369E3
:1056C000012B04D0636A2046984702B070BDA169DF
:1056D0002B46324629442046FFF7CAFE0028F1D067
:1056E000002100910B462A462046FFF755FF00286F
:1056F000E8D14FF0500383F31188BFF36F8FBFF3EE
:105700004F8FFEE7D447002070B582B006460C46A6
:10571000FFF7D6FB01A8FFF7B1FF019B23BB0546AE
:105720000CB9B04219D22CB1114B1B681C68B4FAE9
:1057300084F464092246711B0E4B1868FFF756F972
:10574000FFF75CFC38B94FF080520B4B1A60BFF387
:105750004F8FBFF36F8F02B070BDFFF74FFC29462C
:105760003046FFF7A1FFF6E7FFF748FCF3E700BF7D
:10577000D8470020C848002004ED00E030B587B0CD
:10578000002203A9364B1868FFF76EF8002864D092
:10579000039B002BF4DB059C636913B1201DFEF70E
:1057A000B2FB02A8FFF76AFF039B092BE8D801A20E
:1057B00052F823F0DD570008DD570008DD570008D8
:1057C00081570008255800084B580008DD5700088D
:1057D000DD57000881570008255800080499A5697D
:1057E0000B46024629442046FFF742FE0028C7D058
:1057F000636A20469847E369012BC1D1A269002161
:1058000000910B46049802442046FFF7C5FE00288D
:10581000B6D14FF0500383F31188BFF36F8FBFF3FE
:105820004F8FFEE70499A16131B10346024601445E
:105830002046FFF71DFEA3E74FF0500383F31188C6
:10584000BFF36F8FBFF34F8FFEE794F82830002B24
:1058500096D12046FEF762FD92E707B030BD00BF4B
:10586000C848002000B583B001A8FFF7F1FD0199F9
:10587000FFF74AFFFFF782FFF6E7000000B587B0A9
:105880000023009301930293039304930593164816
:10589000164A0260436083600361437680F82030DB
:1058A000C36201228262C360C26180F83030042288
:1058B000426103764363FBF757FE78B901230093F7
:1058C00001930023039302930493059369460648CA
:1058D000FBF798FF28B907B05DF804FB00F09AF9D0
:1058E000ECE700F097F9F6E78C500020000100503B
:1058F00010B588B000230393049305930693079390
:1059000002681E4B9A4201D008B010BD04461C4BE1
:105910005A6942F080525A615A6902F080520192EB
:10592000019A5A6942F400325A615B6903F4003308
:105930000293029B502303930323049303A94FF084
:105940009040FCF761FA0F480F4B0360002343605F
:1059500083608022C2604FF4807202614FF48062E3
:10596000426120228261C361FCF7A8F918B9054B96
:10597000A3635C62C8E700F04DF9F8E7000100504E
:1059800000100240DC5000200804024000B583B043
:10599000124B5A6942F001025A615A6902F001023F
:1059A0000092009A5A6942F002025A615B6903F060
:1059B00002030193019B002205211120FCF718F935
:1059C0001120FCF747F9002207213820FCF710F9D5
:1059D0003820FCF73FF903B05DF804FB00100240EB
:1059E00008B5FBF709FC01210846FBF741FCFBF772
:1059F00007FB4FF47A70FEF749FAFAE770470000A8
:105A0000034B0360034B0B6080231360704700BFA0
:105A1000D04A0020D0480020034B0360034B0B60AA
:105A20004FF4807313607047244F0020244B0020F4
:105A300030B589B001AC074D0FCD0FC495E8070014
:105A400084E80700002101A8FEF7EBF9024B18607B
:105A500009B030BD30A00008205100202DE9F041F0
:105A60008AB0002405940694079408940994324B54
:105A70005A6942F400225A615A6902F400220192E2
:105A8000019A5A6942F480025A615A6902F480020A
:105A90000292029A5A6942F400325A615A6902F437
:105AA00000320392039A5A6942F480225A615B6978
:105AB00003F480230493049B204E224602213046A7
:105AC000FCF772FA1E4F22464FF400513846FCF79D
:105AD0006BFA22464FF480614FF09040FCF764FA75
